{
  "_format": "hh-sol-artifact-1",
  "contractName": "OnChainProfile",
  "sourceName": "contracts/OnChainProfile.sol",
  "abi": [
    {
      "anonymous": false,
      "inputs": [
        {
          "indexed": true,
          "internalType": "address",
          "name": "_addr",
          "type": "address"
        },
        {
          "indexed": true,
          "internalType": "address",
          "name": "_pfpAddr",
          "type": "address"
        },
        {
          "indexed": true,
          "internalType": "uint256",
          "name": "_tokenId",
          "type": "uint256"
        }
      ],
      "name": "PfpChanged",
      "type": "event"
    },
    {
      "anonymous": false,
      "inputs": [
        {
          "indexed": true,
          "internalType": "address",
          "name": "_addr",
          "type": "address"
        },
        {
          "indexed": false,
          "internalType": "string",
          "name": "_profile",
          "type": "string"
        }
      ],
      "name": "ProfileChanged",
      "type": "event"
    },
    {
      "inputs": [
        {
          "internalType": "address",
          "name": "_pfpAddr",
          "type": "address"
        },
        {
          "internalType": "uint256",
          "name": "_tokenId",
          "type": "uint256"
        }
      ],
      "name": "changePfp",
      "outputs": [],
      "stateMutability": "nonpayable",
      "type": "function"
    },
    {
      "inputs": [
        {
          "internalType": "string",
          "name": "_profile",
          "type": "string"
        }
      ],
      "name": "changeProfile",
      "outputs": [],
      "stateMutability": "nonpayable",
      "type": "function"
    },
    {
      "inputs": [
        {
          "internalType": "address",
          "name": "_addr",
          "type": "address"
        }
      ],
      "name": "pfpOf",
      "outputs": [
        {
          "internalType": "address",
          "name": "",
          "type": "address"
        },
        {
          "internalType": "uint256",
          "name": "",
          "type": "uint256"
        }
      ],
      "stateMutability": "view",
      "type": "function"
    },
    {
      "inputs": [
        {
          "internalType": "address",
          "name": "",
          "type": "address"
        }
      ],
      "name": "profile",
      "outputs": [
        {
          "internalType": "string",
          "name": "",
          "type": "string"
        }
      ],
      "stateMutability": "view",
      "type": "function"
    }
  ],
  "bytecode": "0x608060405234801561001057600080fd5b506106d8806100206000396000f3fe608060405234801561001057600080fd5b506004361061004c5760003560e01c8063482b390f146100515780639dd9d0fd14610066578063ce92ab1e1461008f578063fe454f6e146100a2575b600080fd5b61006461005f3660046103d2565b6100d4565b005b61007961007436600461049b565b610132565b60405161008691906104bf565b60405180910390f35b61006461009d36600461050e565b6101cc565b6100b56100b036600461049b565b6102f5565b604080516001600160a01b039093168352602083019190915201610086565b3360009081526001602052604090206100ed82826105c5565b50336001600160a01b03167fa572f7f0d539a420294e333f38b0e9e3a61a70b1298aea939f9ec1d1d552a7968260405161012791906104bf565b60405180910390a250565b6001602052600090815260409020805461014b9061053a565b80601f01602080910402602001604051908101604052809291908181526020018280546101779061053a565b80156101c45780601f10610199576101008083540402835291602001916101c4565b820191906000526020600020905b8154815290600101906020018083116101a757829003601f168201915b505050505081565b6040516331a9108f60e11b81526004810182905233906001600160a01b03841690636352211e90602401602060405180830381865afa158015610213573d6000803e3d6000fd5b505050506040513d601f19601f820116820180604052508101906102379190610685565b6001600160a01b03161461027d5760405162461bcd60e51b81526020600482015260096024820152682737ba1037bbb732b960b91b604482015260640160405180910390fd5b6040805180820182526001600160a01b03848116808352602080840186815233600081815292839052868320955186546001600160a01b03191695169490941785555160019094019390935592518493927f43adaf5012698dbba95c68cb3c47fb60094bc81ce91e054d70d95ee1933c50b691a45050565b6001600160a01b0381811660008181526020818152604080832081518083018352815490961680875260019091015492860183905290516331a9108f60e11b815260048101929092529193849390929091636352211e90602401602060405180830381865afa15801561036c573d6000803e3d6000fd5b505050506040513d601f19601f820116820180604052508101906103909190610685565b6001600160a01b0316036103b05780516020909101519094909350915050565b50600093849350915050565b634e487b7160e01b600052604160045260246000fd5b6000602082840312156103e457600080fd5b813567ffffffffffffffff808211156103fc57600080fd5b818401915084601f83011261041057600080fd5b813581811115610422576104226103bc565b604051601f8201601f19908116603f0116810190838211818310171561044a5761044a6103bc565b8160405282815287602084870101111561046357600080fd5b826020860160208301376000928101602001929092525095945050505050565b6001600160a01b038116811461049857600080fd5b50565b6000602082840312156104ad57600080fd5b81356104b881610483565b9392505050565b60006020808352835180602085015260005b818110156104ed578581018301518582016040015282016104d1565b506000604082860101526040601f19601f8301168501019250505092915050565b6000806040838503121561052157600080fd5b823561052c81610483565b946020939093013593505050565b600181811c9082168061054e57607f821691505b60208210810361056e57634e487b7160e01b600052602260045260246000fd5b50919050565b601f8211156105c0576000816000526020600020601f850160051c8101602086101561059d5750805b601f850160051c820191505b818110156105bc578281556001016105a9565b5050505b505050565b815167ffffffffffffffff8111156105df576105df6103bc565b6105f3816105ed845461053a565b84610574565b602080601f83116001811461062857600084156106105750858301515b600019600386901b1c1916600185901b1785556105bc565b600085815260208120601f198616915b8281101561065757888601518255948401946001909101908401610638565b50858210156106755787850151600019600388901b60f8161c191681555b5050505050600190811b01905550565b60006020828403121561069757600080fd5b81516104b88161048356fea26469706673582212207b479f917e3354ea1b876fde188bae9d03143ca0d6e736d28290ee3c026d7d3b64736f6c63430008170033",
  "linkReferences": {},
  "deployedLinkReferences": {}
}